:10000000B9C0CBC0CAC0C9C0C8C0C7C0C6C0C5C0BF
:10001000C4C0C3C0C2C0C1C0C0C0BFC0BEC0300E1B
:100020001115110E3100091F0100320913140900C6
:1000300033111515150A341C0404041F351D1D1D2C
:100040001D12361F15151517371010131418380AFE
:100050001515150A391D1515151F610F1414140FE8
:10006000621F1515150A630E1111110A641F111173
:10007000110E651F15151511661F14141410670E47
:100080001111130A681F0404041F6900111F1100D5
:100090006A03111F10006B1F040A11006C1F01017D
:1000A00001006D1F0807081F6E1F0804021F6F0E56
:1000B0001111110E701F14141408710E1111130F69
:1000C000721F141615097308151515127410101FD8
:1000D0001010751E0101011E761806010618771F03
:1000E000010E011F78110A040A1179110A0408107F
:1000F0007A13151515192000000000005F01010199
:1001000001012E000100000021001D0000003F0839
:10011000131408002D00040404003A00110000002C
:100120003B01110000002C01020000002B00040E16
:1001300004007C001B0000005C0018040300220087
:1001400018001800270018000000251102040811EB
:100150002F000304180028000E1100002900110EC2
:1001600000003D0A0A0A0A0A3C040A1100003E1176
:100170000A04000011241FBECFE5D2E0DEBFCDBFD0
:1001800010E0A0E6B0E0EAE6F2E002C005900D92D1
:10019000A037B107D9F702D066C032CF8FE187BB55
:1001A00090E080E061E070E028B3AB01082E01C070
:1001B000440F0A94EAF7242B28BBE3E2F4EF3197CB
:1001C000F1F700C0000001968530910569F724E041
:1001D00030E061E070E048B3CB01022E01C0880F2F
:1001E0000A94EAF78095842388BB83E294EF019711
:1001F000F1F700C000002150310968F7A0E6B0E037
:100200004D9190E080E0042E000C550BFC01E25E65
:10021000FF4FE491E4171506B1F430E020E0BC0193
:10022000615E7F4FFB01E20FF31FE491E8BBE3EF58
:10023000F1E03197F1F700C000002F5F3F4F25300C
:10024000310581F718BA06968635F1E09F07F1F679
:1002500081EE94E00197F1F700C0000090E0AE3627
:0A026000B90771F6CBCFF894FFCF79
:10026A006A61636F706F2073616C6C656D69000001
:00000001FF
